:020000040000fa
:10000000f07f0020f120000073180000731800003a
:1000100000000000000000000000000000000000e0
:100020000000000000000000000000007318000045
:10003000000000000000000073180000f31500002d
:100040007318000073180000731800007318000084
:1000500073180000670c000073180000731800008c
:100060007318000073180000731800007318000064
:100070007318000073180000731800007318000054
:100080007318000073180000731800007318000044
:100090007318000073180000731800007318000034
:1000a0007318000073180000731800007318000024
:1000b0007318000073180000731800007318000014
:1000c0007318000073180000731800007318000004
:1000d00073180000731800007318000073180000f4
:1000e00073180000731800007318000073180000e4
:1000f00073180000731800007318000073180000d4
:1001000073180000731800007318000073180000c3
:1001100073180000731800007318000073180000b3
:1001200073180000731800007318000073180000a3
:100130007318000073180000731800007318000093
:100140007318000073180000731800007318000083
:0c01500073180000731800007318000002
:020000040000fa
:10015c00f8b5c046f8bc08bc9e4670471d2300008d
:10016c00f8b5c046f8bc08bc9e467047f9220000a2
:020000040000fa
:10017c0080b500af40f60003c4f20003da6940f624
:10018c000003c4f2000310210a43da6141f6004374
:10019c00c4f20003d02242219950c04641f60043dc
:1001ac00c4f20003d0229b5840221340002bf5d000
:1001bc0040f25003c2f200032c220021180002f07e
:1001cc0077f940f25003c2f2000341f20002c4f28c
:1001dc0000221a6041f20003c4f2002301221a60cb
:1001ec00c04641f20003c4f20023db690122134034
:1001fc00002bf6d141f20003c4f2002304221a6052
:10020c0041f20003c4f200231a6841f20003c4f265
:10021c0000238021c9050a431a6041f20003c4f28d
:10022c0000231a6841f20003c4f200238021490321
:10023c000a431a6041f20003c4f200235a6841f2e7
:10024c000003c4f2002340210a435a6041f2000229
:10025c00c4f2002241f20003c4f2002312681a60b7
:10026c0041f20002c4f2002241f20003c4f2002366
:10027c0012681a6041f20002c4f2002241f200033b
:10028c00c4f2002312681a6041f20002c4f2002288
:10029c0041f20003c4f2002352685a6041f200029a
:1002ac00c4f2002241f20003c4f2002352685a60e7
:1002bc0041f20002c4f2002241f20003c4f2002316
:1002cc0092689a6041f20003c4f20023404a9a817a
:1002dc0040f25003c2f2000300225a6240f2500373
:1002ec00c2f2000344f61c62c0f20e029a6241f2a2
:1002fc000003c4f200235a6841f20003c4f2002345
:10030c00c32109040a435a60c04641f20003c4f2f7
:10031c000023db6904221340002bf6d143f20023a7
:10032c00c4f20003c8229b5cdab243f20023c4f28d
:10033c00000303210a43d1b2c822995443f200238b
:10034c00c4f20003b4229b5cdab243f20023c4f281
:10035c00000303210a43d1b2b422995443f200237f
:10036c00c4f20003c9229b5cdab243f20023c4f24c
:10037c00000303210a43d1b2c922995443f200234a
:10038c00c4f20003b4229b5cdab243f20023c4f241
:10039c00000330210a43d1b2b422995441f2000334
:1003ac00c4f200231a6841f20003c4f200230221b4
:1003bc000a431a60c04641f20003c4f20023db6911
:1003cc0002221340002bf6d1c046bd4680bdc0466c
:1003dc00aed8ffff80b582b000af78607b685b69f8
:1003ec0063b17b685b690122da807b685b697a6840
:1003fc00128c92b21a817b6800225a617b680022af
:10040c009a617b680022da617b6800221a84c046fc
:10041c00bd4602b080bd90b587b000af7860396042
:10042c001623fb1800221a801523fb1800221a70c1
:10043c007b681b681b7edbb21a0001231340002b68
:10044c0050d07b681b8a9bb283b17b68db68591cdc
:10045c007a68d1601b78dab27b681b689a627b6819
:10046c001b8a9bb2013b9ab27b681a827b681b8aff
:10047c009bb2002b36d17b680022da607b681b892b
:10048c009bb22bb37b685b681a687b68da607b680d
:10049c005b689b889ab27b681a827b685b680833be
:1004ac001a007b685a607b681b899bb2013b9ab22d
:1004bc007b681a817b68db681bb17b681b8a9bb2eb
:1004cc0083b97b680022da607b6800221a8209e01b
:1004dc007b681b6801221a757b6800225a607b6856
:1004ec000022da607b681b681b7edbb21a000423d7
:1004fc00134073b17b681b685b8b9ab21623fb1895
:10050c0036490a431a807b681b689a6a1523fb18c4
:10051c001a707b685b69002b59d01623fb181b885b
:10052c0048f20302134048f20002934213d17b6855
:10053c005b691a687b681b8c9bb2591c88b2796802
:10054c000884d3181522ba1812781a707b683a6886
:10055c00183303ca03c37b681b685b8b9bb21ab24c
:10056c001623fb1800215b5ef7210b401bb21343d3
:10057c001ab27b681b6892b25a837b681b8c9ab246
:10058c007b685b699b889bb29a4204d37b6818009a
:10059c00fff720ff1ce07b681b8c9bb2cbb17b6808
:1005ac0018331a0039680c243b19180001f0ebf8c9
:1005bc007b6824331a003b191100180000f0e7ff88
:1005cc00031e06db7b681800fff704ff00e0c04643
:1005dc00c046c046bd4607b090bdc0460080ffff78
:1005ec0080b582b000af78607a6840f25003c2f2f6
:1005fc00000311001800fff70effc046bd4602b005
:10060c0080bd80b582b000af78607b681b8a9bb2de
:10061c005bb97b681b899bb23bb97b681b681b7ef3
:10062c00dbb21a00012313400bb9012300e00023b5
:10063c001a1c01231340dbb21800bd4602b080bd6a
:10064c0080b588b000aff860b9607a601e23fb18e3
:10065c00082252421a80bb680bb17b680bb901238c
:10066c003ae07b68202b01d9002335e0fb681800a9
:10067c00fff7c7ff03000bb100232de00023bb6184
:10068c0000237b611ce0bb69db00ba68d3189b8834
:10069c001e22ba1812889a4201d200231ce0bb69b0
:1006ac00db00ba68d3189a881e217b187918098840
:1006bc008a1a1a807b6901337b61bb690133bb6188
:1006cc00ba697b689a42ded3fb68ba685a607b6869
:1006dc009ab2fb681a8101231800bd4608b080bd90
:1006ec0080b582b000af78607b6800221a817b688d
:1006fc0000225a607b6800221a827b680022da6032
:10070c00c046bd4602b080bd80b582b000af7860f7
:10071c0039603a68796840f25003c2f2000318005d
:10072c00fff78eff03001800bd4602b080bd80b5f8
:10073c0000af40f25003c2f200031800fff761ff54
:10074c0003001800bd4680bd80b500af40f25003d9
:10075c00c2f200031800fff7c3ffc046bd4680bdc0
:10076c0080b582b000af78607b685b695a1e93419c
:10077c00dbb21800bd4602b080bd80b582b000afc0
:10078c00786039603b685bb13b681b6843b13b6880
:10079c009b882bb13b689b884ff6f872934201d92a
:1007ac00002316e07b685b690bb1002311e03b680a
:1007bc000022da803b6800221a817b6800221a84ae
:1007cc007b681833180000f09aff7b683a685a610e
:1007dc0001231800bd4602b080bd80b582b000afc9
:1007ec0078607a6840f25003c2f2000311001800de
:1007fc00fff7c3ff03001800bd4602b080bd80b5f3
:10080c0000af40f25003c2f200031800fff7a8ff3c
:10081c0003001800bd4680bd80b500af40f2500308
:10082c00c2f200031800fff7d5fdc046bd4680bddf
:020000040000fa
:10083c0080b582b000af0200fb1d1a70fb1d1b7847
:10084c007f2b12d8fb1d1b781a001f231a40110096
:10085c004ef20013cef20003fa1d127852b2520976
:10086c000120884001009200d150c046bd4602b024
:10087c0080bd90b583b000af02003960fb1d1a70cb
:10088c00fb1d1b787f2b2fd84ef20013cef20003ea
:10089c00fa1d127852b29208c0329200d358fa1d47
:1008ac001278110003220a40d200ff2191400a0065
:1008bc00d2431a4010003b689b01ff221a40fb1ddb
:1008cc001b78190003230b40db009a4011004ef2f9
:1008dc000013cef20003fa1d127852b292080143b3
:1008ec00c0329200d15037e04ef60053cef20003e6
:1008fc00fa1d127811000f220a40083a92080632ab
:10090c0092009b1804331b68fa1d12781100032205
:10091c000a40d200ff2191400a00d2431a40100035
:10092c003b689b01ff221a40fb1d1b781900032317
:10093c000b40db009a404ef60053cef20003f91d3b
:10094c0009780c000f21214008398908024306312f
:10095c0089005b1804331a60c046bd4603b090bdd5
:10096c0080b582b000af00237b6040f20043c4f23c
:10097c00000301229a7140f20043c4f200030222e8
:10098c009a7000e0c04640f20043c4f200039b7929
:10099c00dbb21a0001231340002bf3d040f20043ca
:1009ac00c4f2000301229a7145f20003c4f2001351
:1009bc0004225a6041f60003c4f2000340f20232f2
:1009cc001a6200e0c04641f60003c4f20003da6884
:1009dc008023db021340002bf4d041f20003c4f25d
:1009ec00000300221a8600e0c04641f20003c4f264
:1009fc0000031a6980235b041340002bf4d046f2e9
:100a0c002003c0f280031b687b607a68fc23db0543
:100a1c0013407b607b68db0b7b607b6840f20022c1
:100a2c0013437b6041f20003c4f200037a685a63fb
:100a3c0000e0c04641f20003c4f200031a698023af
:100a4c005b041340002bf4d041f20003c4f200030a
:100a5c001b8e9ab241f20003c4f2000302210a4336
:100a6c0092b21a8600e0c04641f20003c4f20003c1
:100a7c001a6980235b041340002bf4d041f6004329
:100a8c00c4f2000340f205129a6200e0c04641f63f
:100a9c000043c4f200035b6810221340002bf5d115
:100aac0041f60043c4f2000340f20712c0f2020206
:100abc001a6200e0c04641f60043c4f200035b68d2
:100acc0004221340002bf5d1c046bd4602b080bdb8
:100adc0080b500af41f60043c4f2000390224221de
:100aec00995000e0c04641f60043c4f20003902246
:100afc009b5842221340002bf4d042f60023c4f240
:100b0c00000301221a7000e0c04642f60023c4f232
:100b1c0000035b6801221340002bf5d142f6002341
:100b2c00c4f200030f225a63c046bd4680bd80b597
:100b3c0000af42f60023c4f200031b78dab242f68f
:100b4c000023c4f2000302210a43d2b21a7000e05f
:100b5c00c04642f60023c4f200035b680222134035
:100b6c00002bf5d1c046bd4680bd80b500af40f22c
:100b7c000023c4f2002301221a70c046c046c046ae
:100b8c00c046bd4680bd80b500af43f20023c4f221
:100b9c00000348f200025a6143f20023c4f200033e
:100bac0048f200029a6043f20023c4f200034f2281
:100bbc0000219954c046bd4680bd80b586b000afbb
:100bcc000200bb1d1a803b1d0a1c1a8010217b18c9
:100bdc0000221a607b1800225a6008203b18002261
:100bec001a603b1800225a603b1d00229b5edb43bf
:100bfc001bb2ba1d0020125e13401ab2bb1d1a8024
:100c0c00bb1d1b880122134033b17b181b6848f2b3
:100c1c0000021a437b181a603b1d1b8801221340eb
:100c2c003bb108217b181b6848f200021a437b1861
:100c3c001a6043f20023c4f200031022ba1812689f
:100c4c009a6143f20023c4f200030822ba18126816
:100c5c005a61c046bd4606b080bd80b500af40f2bb
:100c6c00b003c2f200031b889bb2032293439ab2d7
:100c7c0040f2b003c2f200031a8042f60023c4f221
:100c8c0000039b6b0422134073b940f2b003c2f211
:100c9c0000031b889bb2012213439ab240f2b003ab
:100cac00c2f200031a800de040f2b003c2f200035e
:100cbc001b889bb2022213439ab240f2b003c2f2d9
:100ccc0000031a8042f60023c4f200035a6942f66c
:100cdc000023c4f2000304210a435a61c046bd46f6
:100cec0080bd80b500af43f20023c4f20003802224
:100cfc0012045a6043f20023c4f20003572203216a
:100d0c00995443f20023c4f200033b229b5cdab2f9
:100d1c0043f20023c4f200030f210a40d1b23b225c
:100d2c00995442f60023c4f200031a6b42f60023d6
:100d3c00c4f2000304210a431a6342f60023c4f2ee
:100d4c000003da6942f60023c4f200030c490a409e
:100d5c00da6142f60023c4f20003da6942f600239a
:100d6c00c4f2000340f600310a43da6142f6002374
:100d7c00c4f2000304221a61c046bd4680bdc046c1
:100d8c00fff0ffff80b582b000afba1d40f2b00398
:100d9c00c2f200031b88138040f2b003c2f20003be
:100dac0000221a80bb1d1b881800bd4602b080bdf6
:100dbc0080b500afbff35f8f62b603210520fff74c
:100dcc0058fd01235b4203211800fff752fd05205b
:100ddc00fff72efd01235b421800fff729fdc046eb
:100dec00bd4680bd80b500affff7bafdfff7bdfe75
:100dfc00fff76efefff775fffff7c5fefff7b8f9bb
:100e0c00fff795fe00f043fcfff7d2ffc046bd464e
:100e1c0080bd80b582b000af3b00180000f06ffcc5
:100e2c003b001800fff7dcfbc046bd4602b080bd9e
:020000040000fa
:100e3c0080b500af41f60043c4f20003cc2242213e
:100e4c00995000e0c04641f60043c4f20003cc22a6
:100e5c009b5840221340002bf4d0c046bd4680bda9
:100e6c0080b500affff7e4ff40f60043c4f2002367
:100e7c0001221a60c04640f60043c4f20023db692d
:100e8c00002bf8d140f60043c4f2002340f20012cc
:100e9c005a60c04640f60043c4f20023db69002bc5
:100eac00f8d140f60043c4f20023e822da6040f6a1
:100ebc000043c4f200239b7ddab240f60043c4f237
:100ecc0000237d2149420a43d2b29a7543f2002392
:100edc00c4f2000336222221995443f20023c4f2b7
:100eec0000034d220321995443f20023c4f2000362
:100efc004c220321995440f60043c4f200231622dd
:100f0c00c2f210021a60c04640f60043c4f200233d
:100f1c00db69002bf8d140f60043c4f20023102209
:100f2c005a83c04640f60043c4f20023db69002b11
:100f3c00f8d1c046bd4680bd80b584b000af3960e5
:100f4c001100fb1d021c1a703b1d0a1c1a800d237c
:100f5c00fb1800221a700e23fb1800221a800023a3
:100f6c00bb600de040f60043c4f200235b8b9bb2e8
:100f7c001a00302313401bb900f00bf9002372e068
:100f8c0040f60043c4f200235b8b9bb21a00302363
:100f9c001340102be6d1fb1d1b785a0040f6004382
:100fac00c4f200235a62c04640f60043c4f2002348
:100fbc001b7edbb21a0081231340002bf4d040f6c9
:100fcc000043c4f200231b7edbb25bb2002b03dabe
:100fdc0000f0dff8002346e00e23fb1800221a80f5
:100fec002be00e23fb181b883a68d3181a7840f6ae
:100ffc000043c4f200239a62c04640f60043c4f298
:10100c0000231b7edbb21a0081231340002bf4d08b
:10101c0040f60043c4f200231b7edbb25bb2002b14
:10102c0005da00f0b6f80e23fb181b881be00e2126
:10103c007b181a887b1801321a800e203a183b1d37
:10104c0012881b889a42ccd340f60043c4f200238a
:10105c005a6840f60043c4f20023c02189020a43b7
:10106c005a603b181b881800bd4604b080bd80b583
:10107c0084b000af39601100fb1d021c1a703b1dbf
:10108c000a1c1a800e23fb1800221a800de040f671
:10109c000043c4f200235b8b9bb21a003023134035
:1010ac001bb900f076f800236fe040f60043c4f261
:1010bc0000235b8b9bb21a0030231340102be6d11c
:1010cc00fb1d1b785a0040f60043c4f200235a6201
:1010dc0000e0c04640f60043c4f200231b7edbb2a6
:1010ec001a0002231340012bf3d10e23fb1800220c
:1010fc001a8034e040f60043c4f20023996a0e20b3
:10110c003b181b883a68d318cab21a703b181a8855
:10111c003b1d1b88013b9a421bda00e0c04640f69f
:10112c000043c4f200231b7edbb21a00822313405f
:10113c00002bf3d040f60043c4f200231b7edbb23d
:10114c005bb2002b05da00f024f80e23fb181b8889
:10115c001be00e217b181a887b1801321a800e2096
:10116c003a183b1d12881b889a42c3d340f60043a1
:10117c00c4f200235a6840f60043c4f20023c02195
:10118c0089020a435a603b181b881800bd4604b0fc
:10119c0080bd80b500af40f60043c4f200231a684e
:1011ac0040f60043c4f2002302218a431a60c04671
:1011bc0040f60043c4f20023db69002bf8d140f663
:1011cc000043c4f200231a6840f60043c4f2002323
:1011dc0002210a431a60c04640f60043c4f20023c1
:1011ec00db69002bf8d140f60043c4f20023102237
:1011fc005a83c04640f60043c4f20023db69002b3f
:08120c00f8d1c046bd4680bdcb
:020000040000fa
:101214000023f0b506001500b1b0079103930799b8
:101224000b78002b00d10ae101235b420c9310ab35
:1012340000240e9380230b940d940f930b5d0bb13c
:10124400252b29d134b12200300001f0daf8079bb4
:101254001b190793079b1a78252a00d0e4e040f273
:10126400020c012110270133049307930798037894
:101274002b2b1ad025d8202b1ad0232b1dd02a2b68
:1012840028d001f057f80d90079b1a78303a092ab4
:1012940031d801330793f7e70134cfe70b9b05936c
:1012a4000b4301300b930790e0e704230b9a0fe004
:1012b4000b9b0593059a08230ae00b9b05933b437c
:1012c400efe72d2bead0302bd9d162460b9b059347
:1012d4001343e6e72b6801301a1d1b6807902a6048
:1012e4000d93002b07da0b9a5b42059201220599b4
:1012f4000d934a400b920b9bda0702d502229343cb
:101304000b93079b1a782e2a0ed10022581c0c929c
:1013140007905a782a2a27d1023307932b681a1d7b
:101324001b682a6005930c9307a801f023f8079b18
:101334000700187801f0e5f8692800d182e034dc70
:10134400632800d1d7e01adc252800d1e4e0612825
:1013540058d0049b01220793002352420c920b9312
:101364000d9300930232e1e000f0e4ff0c90079b40
:101374001a78303a092ad7d801330793f7e7642853
:1013840060d06728e5dc2a00390008a801f024f8b9
:10139400002800d1abe0079b0ba95a1c07921b78cd
:1013a40008aa300001f0cbf83de0702800d17be0c2
:1013b40016dc6e2800d193e06f28cad12b000022de
:1013c400390008a800f0f6fd002800d18fe0079b43
:1013d40008aa01330ba93000079301f0aef822e00c
:1013e400752840d078284ed07328b2d1802f00d0f1
:1013f4007de0079b2a6801330793131d2b60126855
:10140400002384e02a00390008a800f0e5ff002842
:1014140000d16ce0079b0ba95a1c07921b7808aa01
:10142400300001f08cf82418039b1c19a34200dc43
:101434007ee04f223f4b1a6001235b4203930398e3
:1014440031b0f0bd2b000122390008a800f0b2fd34
:1014540000284cd0079b08aa01330ba9300007933e
:1014640001f06bf8dfe72b000022390008a800f038
:10147400a1fde0b3079b08aa01330ba93000079331
:1014840001f05bf8cfe72b000022390008a800f038
:1014940091fd60b3079b5a1c07921b7808aa0ba9fd
:1014a400300000f0effcbee72b000022f02108a87a
:1014b40000f080fdd8b1079b099a01330793089b7c
:1014c40013435bb91c4800f0cbff02000b9b1a4985
:1014d40000930d9b300000f048fea4e77823dde77d
:1014e400039b39001a1908a82b0000f07bfe079b08
:1014f4000133079398e7802ff9d1079b01330793b2
:101504002b681a1d1b682a6008aa137001230ba9f3
:10151400300001f016f886e7802fe8d10122079bfe
:10152400013307930b9b049300930d9b0349d1e76d
:10153400039474e6ac000020222500002825000056
:020000040000fa
:1015440080b582b000af786019e07b685b6843f2d5
:101554000062ccf265429a187b685a607b681b680b
:10156400013305d07b681b685a1c7b681a6006e04f
:101574007a684cf6ff13c3f69a33536007e07b682e
:101584005a684cf6ff13c3f69a339a42ddd8c04624
:10159400bd4602b080bd80b582b000af78603960ce
:1015a4007b681a683b681b689a4202d201235b423b
:1015b40019e07b681a683b681b689a4201d90123c9
:1015c40011e07b685a683b685b689a4202d2012347
:1015d4005b4208e07b685a683b685b689a4201d9c1
:1015e400012300e000231800bd4602b080bd80b591
:1015f40082b000af3a0040f29803c2f2000303cb7a
:1016040003c23b005b6844f64032c0f24c029a18b5
:101614003b005a600de03b005b6843f20062ccf291
:1016240065429a183b005a603b001b685a1c3b00f9
:101634001a603b005a684cf6ff13c3f69a339a4279
:10164400e9d840f2a003c2f200031b685a1c40f21e
:10165400a003c2f200031a6040f29803c2f200032e
:101664003a0003ca03c340f2a003c2f200031b689a
:101674005a1c40f2a003c2f200031a604ef2100397
:10168400cef2000348f25812c0f215029a60c04626
:10169400bd4602b080bd80b500af4ef21003cef25d
:1016a40000034ef660225a604ef21003cef200039d
:1016b40048f25812c0f215029a604ef21003cef2ac
:1016c400000307221a60c046bd4680bd80b584b0c1
:1016d40000af786040f2a003c2f200031b68fb6015
:1016e4007a6840f29803c2f2000303cb03c240f2cb
:1016f400a003c2f200031b68fa689a42ead1c0460a
:10170400bd4604b080bd90b587b000af78604ef29e
:101714001003cef200039b684ef66022d31a7b615d
:101724000c243b191800fff7d1ff20003b1859681f
:101734007a6913005b019b1a9b009b18db001a005b
:101744000c23b2fbf3f3ca183b185a600ee00c21c9
:101754007b185b6843f20062ccf265429a187b18ee
:101764005a607b181b685a1c7b181a600c217b1862
:101774005a684cf6ff13c3f69a339a42e7d87b684b
:101784007a1803ca03c3c046bd4607b090bd80b5ee
:1017940088b000aff860b9607a6014217b18002229
:1017a4001a607b1800225a600023fb61bb681a6828
:1017b4007b681b689a4207d2bb681a687b681b68ff
:1017c400d21a7b181a6007e0bb681a687b681b682a
:1017d400d21a1423fb181a60bb681a687b681b684a
:1017e4009a4233d27b681a68bb681b68d31afb61c0
:1017f40015e0fb6943f2006cccf2654c6344fb6179
:101804001422bb181b6823b9bb18012252421a6068
:1018140005e014217b181b685a1e7b181a60fa69ac
:101824004cf6ff13c3f69a339a42e2d81422bb183b
:101834001b6823b9bb18012252421a600ee014211e
:101844007b181b685a1e7b181a6007e0bb685a682d
:101854007b685b68d21a1423fb185a60fb68142255
:0e186400ba1803ca03c3c046bd4608b080bd13
:020000040000fa
:02187200fee78f
:020000040000fa
:1018740080b582b000af78607b68882200211800b0
:1018840000f01afefff7b2fa7b6876331a007b6821
:101894009a667b686c22102199527b6800229a70a8
:1018a4007b6868331800fef79cffc046bd4602b053
:1018b40080bdf0b585b000af78600e243b190022de
:1018c4001a800a23fb1800221a800c23fb1800221a
:1018d4001a8008217b180a221a707b1800225a7079
:1018e400fff79bfa25003c19fff750fa0300238009
:1018f4007b191b887bb17b191b880122134033b1f0
:101904007b681b88012213439ab27b681a800e23da
:10191400fb1800221a807b686e229b5a9bb2012b13
:101924000dd17b681b88022213439ab27b681a800c
:101934007b6870229b5a99b27b68742299527b68a7
:101944001b881a000123134053b3fef7f4fe03006f
:1019540043bb7b681b881bb2002b10db7a6841f603
:101964009833c0f2000353607b6840f2c7221a81a7
:101974007b681b88724a13439ab27b681a807b681f
:10198400043301211800fef7c3fe03005bb17b683a
:101994001b8847f6fe7213409ab27b681a8002e0f5
:1019a400c04600e0c0467b681b881a00022313402f
:1019b400002b00d1bbe0fef7befe0300002b00d0dd
:1019c400b7e07b681b881bb2002b00da95e07a68cd
:1019d40041f66063c0f2000353607b680c221a81f5
:1019e4007a6841f67063c0f2000353617b68072292
:1019f4001a837b68243340220021180000f05cfd28
:101a04007b6874229b5a002b63d07b6800221a8265
:101a14007b6824331a007b68da600e23fb180022eb
:101a24001a800c23fb1800221a8032e07b682433ce
:101a34001a000c257b191b88d0187b191b883f22a0
:101a4400d41a0e26bb191b887a687621d3185b1822
:101a54001b7841f67862c0f20002210000f00cfd10
:101a640002000a203b181a807b1979193a18098850
:101a740012888a181a80bb191b887a687621d318b1
:101a84005b181a787b689a70bb19ba1912880132ec
:101a94001a807b6874229b5a0e22ba1812889a42c2
:101aa40004d20c23fb181b883e2bbfd97b680c2265
:101ab400ba1812881a827b689b78db43dab2082151
:101ac4007b185a707b18022219002520fff738fa78
:101ad40008e07b6807221a827a6841f68063c0f2c4
:101ae4000003d3607b681b88154a13439ab27b6852
:101af4001a807b687422002199527b680433032185
:101b04001800fef705fe0300abb17b686e220021ce
:101b140099527b6868331800fef763fe7b681b8864
:101b240047f6fd7213409ab27b681a8002e0c04601
:101b340000e0c046c046c046bd4605b0f0bdc04644
:101b44000080ffff80b5a4b000af0823fb18180085
:101b5400fff78efe3b1d00221a703b1d00225a70b7
:101b6400fff782f93b1d022219002520fff7e8f94f
:101b74003b1d09221a703b1d61225a703b1d022233
:101b840019002520fff7dcf90823fb181800fff7dc
:041b940090fef9e7df
:020000040000fa
:101b98001b5b306d1b5b324a1b5b313b31482b2d85
:101ba8002d2d2d2d2d2d2d2d2d2d2d2d2d2d2d2d5d
:101bb8002d2d2d2d2d2d2d2d2d2d2d2d2d2d2d2d4d
:101bc8002d2d2d2d2d2d2d2d2d2d2d2d2d2d2d2d3d
:101bd8002d2d2d2d2d2d2d2d2d2d2d2d2d2d2d2d2d
:101be8002d2d2d2b0d0a7c20454545203135383ac1
:101bf80020456c656374726963616c20616e642052
:101c0800456c656374726f6e69637320456e6769ae
:101c18006e656572696e67204c61626f7261746f80
:101c280072792056202020202020207c0d0a7c203c
:101c380020202020202020202041636164656d69d8
:101c480063205965617220323032342d323032359a
:101c58002c2053656d657374657220312020202017
:101c6800202020202020202020202020202020206c
:101c78002020207c0d0a7c202020202020202020cd
:101c8800202020202020202020202020202020204c
:101c9800202020202020202020202020202020203c
:101ca800202020202020202020202020202020202c
:101cb80020202020202020202020207c0d0a7c208d
:101cc80053616d706c653a202248657864756d7053
:101cd8002e2e2e22202020202020202020202020d0
:101ce80020202020202020202020202020202020ec
:101cf80020202020202020202020202020202020dc
:101d08002020207c0d0a7c2020202020202020203c
:101d180020202020202020202020202020202020bb
:101d280020202020202020202020202020202020ab
:101d3800202020202020202020202020202020209b
:101d480020202020202020202020207c0d0a7c20fc
:101d5800417574686f723a20204545452031353801
:101d68002048616e646c657273202020202020203a
:101d7800202020202020202020202020202020205b
:101d8800202020202020202020202020202020204b
:101d98002020207c0d0a7c20446174653a20202094
:101da800203231204f6374203230323420202872a0
:101db800657669736564203332204e6f7620323041
:101dc80032342920202020202020202020202020dc
:101dd80020202020202020202020207c0d0a2b2db0
:101de8002d2d2d2d2d2d2d2d2d2d2d2d2d2d2d2d1b
:101df8002d2d2d2d2d2d2d2d2d2d2d2d2d2d2d2d0b
:101e08002d2d2d2d2d2d2d2d2d2d2d2d2d2d2d2dfa
:101e18002d2d2d2d2d2d2d2d2d2d2d2d2d2d2d2dea
:101e28002d2d2d2b0d0a0d0a4c6173742d707265c2
:101e380073736564206b65792073657175656e636e
:101e48006520286865782064756d70293a203c4eb5
:101e58006f6e653e200d0a001b5b31313b333948fc
:101e68001b5b304b0000c0461b5b31323b314800e6
:101e7800253032582000c0463c4e6f6e653e20002b
:020000040000fa
:101e8800f0b58fb00d934b680c9006938b680d00de
:101e98000793cb6816000393069b0f68002b42db61
:101ea80002239f4310233b400a93079b04930a9bfa
:101eb8003bb1726833681343079a13b11300023bae
:101ec800049308233b400b935a1e9341049ad31a58
:101ed80004933368039a0893736809932b695c1e0b
:101ee80000231355069b0593012c1fdc0a9b002b2e
:101ef80050d10b9b1bb12023039a013c13552b692e
:101f080000975a1e039b121b19190c98079b00f087
:101f18002af90c9b5b68db0503d56b68984200daed
:101f280018000fb0f0bd01230693bbe7089b099a80
:101f380013435bb9059b002b08dc069a049b9b1a8c
:101f4800059a9b18002bd1ddbb07cfd50f23089a24
:101f5800013c134018005730092b01dc30331800be
:101f68000d9b413b192b06d820230343613b192bba
:101f780001d800f0cbfa039b1855059b013b05934c
:101f8800099b1a07089b1b091a43099b08921b09fe
:101f98000993a9e70cce1343002baad0039b0d9af3
:101fa8001b19013b1a703023039a023c1355a0e712
:020000040000fa
:101fb80010b588293ad014dc81294ad003dc80295d
:101fc80047d0002010bd822910d08429f9d1196882
:101fd8002ab30a1d1a6000228b5e0360db17436078
:101fe80010e0a0292ed00fdc9029ead11968072427
:101ff8006ab30919a1430a0008321a600b684c68d1
:10200800036044600120dde7c02901d0f029d8d160
:102018001a68111d1960136803600023dfe70c1d9f
:102028001c600b689bb203604260ebe7196822b141
:102038000a1d1a600023cb56cfe70c1d1c600b68e5
:10204800dbb2f0e71a68111d19601368c5e707319c
:10205800d0e719681ab10a1d1a600b68bde70c1d94
:062068001c600b68dfe7bd
:020000040000fa
:02206e007047b9
:020000040000fa
:10207000b400002004000000010000000000000087
:102080007c0000201c00000000000000b0000020c8
:102090000200000000000000980000200c0000007a
:1020a00000000000500000202c0000000000000094
:1020b000a400002004000000000000000000002038
:1020c0005000000000000000a800002008000000f0
:1020d00000000000b8000020040000000100000023
:1020e0000000000000000000000000006666666658
:020000040000fa
:1020f00040f20003c0f2000323b140f20003c0f23b
:102100000003984740f20003c0f2000323b140f2fd
:102110000003c0f20003984700f048f940f20003c2
:10212000c0f200037f2293434ef60052cef200022b
:10213000936042f25123c0f20003984740f200033b
:10214000c0f2000323b140f20003c0f2000398473d
:1021500040f20003c0f2000323b140f20003c0f2da
:0e2160000003984700210020fff7eefcfee789
:020000040000fa
:10216e00f0b51d00012389b014000e9a06001a4026
:10217e00039102920ab9a5420ad8220003993000af
:10218e0000f03af9a54203d82500280009b0f0bda9
:10219e002f1b01973a00102f00d91022202104a8de
:1021ae0000f085f9019b0f2b0ed80f2204a93a409f
:1021be00300000f021f9029b002be6d1220003999a
:1021ce00300000f019f9e0e7102204a9300000f009
:0a21de0013f9019b103b0193e4e7a5
:020000040000fa
:1021e80010b584291fd007dc812915d0822922d077
:1021f800802911d0002010bd90291cd008dc882926
:10220800f8d119680c1d1c600b6803601a7010e087
:10221800a02901d0c029edd119680c1d1c600b68dc
:1022280003601a6005e019680c1d1c600b680360e8
:102238001a800120dfe719680c1d1c600b68036019
:082248001a60d2175a60f4e796
:020000040000fa
:1022500000230e4a10b513600d4a0e4c13600e4a4f
:1022600013600e4a13600e4a13600e4a53621361e4
:1022700001339360fff7fbfefff7f9fe0a4b9c4228
:1022800000d310bd08cc9847f8e7c046a80000204e
:102290000c00002068010000080000200000002061
:0c22a00004000020100000206c01000071
:020000040000fa
:1022ac0030b51500012289b0524201920432ff323e
:1022bc00029200b9684603900491002401b14c1eaf
:1022cc000594002906da4f220120074b40421a6080
:1022dc0009b030bd00220790027006901a00290048
:0c22ec0001a800f0adf8f3e7ac00002002
:020000040000fa
:1022f80010b5054c227832b9044b13b1044800e0fc
:1023080000bf0123237010bd7c00002000000000e6
:1023180000000000034b10b51bb10349034800e05f
:1023280000bf10bd00000000800000200000000079
:020000040000fa
:10233800030010b51a78202a0dd011000939042994
:1023480009d900212b2a02d02d2a01d101310133cc
:1023580000200a2404e00133ece760430133801acb
:0e2368001a78303a092af8d901b9404210bd5e
:020000040000fa
:1023780070b5040000200a4b4200d55c15b9d2188c
:10238800507870bd216801300e78c0b2ae4204d1d9
:10239800034b0131d218507821600a28ebd9f0e7b5
:0423a800922400007b
:020000040000fa
:1023ac0010b50948016811b9436803b910bd0400a0
:1023bc008368064a9bb20c349b009b5842682000f1
:1023cc00984780002018ede770200000a82400003a
:020000040000fa
:1023dc00002380290fdb812901dd83290bd1072103
:1023ec00136807338b431900083111601a685b6856
:0a23fc0002604360012318007047df
:020000040000fa
:1024060070b505690400954200d915005db12a0032
:10241600606900f05af8226963695b19551b00224e
:08242600636125611a7070bdad
:020000040000fa
:10242e00002310b5934206d103201840421e90415e
:0e243e009b08c01810bdc45ccc540133f2e7fb
:020000040000fa
:10244c0013b50400019201aafef7defe6368db06f9
:08245c0001d50120404216bd2c
:020000040000fa
:10246400037833b1030001331a78002afbd1181a18
:0824740070470020fce7c046a0
:020000040000fa
:10247c000cb407b504ab04cb0193fff711ff03b009
:06248c0008bc02b0184775
:020000040000fa
:1024920068076c094c836a9074a07ac000806888cf
:0624a20000846c82008141
:020000040000fa
:1024a800e52400002f2400003b2500003b25000008
:0424b8003b250000c0
:020000040000fa
:1024bc0032b10300c9b28218197001339342fbd1b7
:0424cc007047c0464f
:020000040000fa
:1024d00010b52ab10023cc5cc45401339342fad125
:0424e00010bdc04625
:020000040000fa
:1024e4008a18914201d10020704700230b700131fa
:0224f400f7e708
:020000040000fa
:1024f60010b5fff7c6fcfff75cfdfff772fe10bdd7
:020000040000fa
:0e2506000300413b192b01d8202318437047d6
:020000040000fa
:0e2514000300613b192b01d85f23184070476c
:020000040000fa
:08252200286e696c29002500f8
:020000040000fa
:08252a0010b5fff7ebff10bd37
:020000040000fa
:0825320010b5fff7eeff10bd2c
:020000040000fa
:04253a0000207047c6
:020000040000fa
:04253e0000207047c2
:020000040000fa
:0425420000207047be
:020000040000fa
:0425460000207047ba
:00000001FF
